{
  "_format": "hh-sol-artifact-1",
  "contractName": "PredictionRegistry",
  "sourceName": "contracts/PredictionRegistry.sol",
  "abi": [
    {
      "inputs": [],
      "stateMutability": "nonpayable",
      "type": "constructor"
    },
    {
      "anonymous": false,
      "inputs": [
        {
          "indexed": true,
          "internalType": "uint256",
          "name": "predictionId",
          "type": "uint256"
        },
        {
          "indexed": true,
          "internalType": "bytes32",
          "name": "hash",
          "type": "bytes32"
        }
      ],
      "name": "PredictionStored",
      "type": "event"
    },
    {
      "inputs": [
        {
          "internalType": "address",
          "name": "_admin",
          "type": "address"
        }
      ],
      "name": "addAdmin",
      "outputs": [],
      "stateMutability": "nonpayable",
      "type": "function"
    },
    {
      "inputs": [
        {
          "internalType": "address",
          "name": "",
          "type": "address"
        }
      ],
      "name": "isAdmin",
      "outputs": [
        {
          "internalType": "bool",
          "name": "",
          "type": "bool"
        }
      ],
      "stateMutability": "view",
      "type": "function"
    },
    {
      "inputs": [
        {
          "internalType": "uint256",
          "name": "",
          "type": "uint256"
        }
      ],
      "name": "predictionHashes",
      "outputs": [
        {
          "internalType": "bytes32",
          "name": "",
          "type": "bytes32"
        }
      ],
      "stateMutability": "view",
      "type": "function"
    },
    {
      "inputs": [
        {
          "internalType": "address",
          "name": "_admin",
          "type": "address"
        }
      ],
      "name": "removeAdmin",
      "outputs": [],
      "stateMutability": "nonpayable",
      "type": "function"
    },
    {
      "inputs": [
        {
          "internalType": "uint256",
          "name": "predictionId",
          "type": "uint256"
        },
        {
          "internalType": "bytes32",
          "name": "hash",
          "type": "bytes32"
        }
      ],
      "name": "storePredictionHash",
      "outputs": [],
      "stateMutability": "nonpayable",
      "type": "function"
    }
  ],
  "bytecode": "0x608060405234801561001057600080fd5b5060018060003373ffffffffffffffffffffffffffffffffffffffff1673ffffffffffffffffffffffffffffffffffffffff16815260200190815260200160002060006101000a81548160ff02191690831515021790555061068c806100776000396000f3fe608060405234801561001057600080fd5b50600436106100575760003560e01c80631785f53c1461005c57806324d7806c146100785780633891566b146100a857806370480275146100d8578063e83be9bd146100f4575b600080fd5b6100766004803603810190610071919061044d565b610110565b005b610092600480360381019061008d919061044d565b6101f7565b60405161009f9190610495565b60405180910390f35b6100c260048036038101906100bd91906104e6565b610217565b6040516100cf919061052c565b60405180910390f35b6100f260048036038101906100ed919061044d565b61022f565b005b61010e60048036038101906101099190610573565b610315565b005b600160003373ffffffffffffffffffffffffffffffffffffffff1673ffffffffffffffffffffffffffffffffffffffff16815260200190815260200160002060009054906101000a900460ff1661019c576040517f08c379a000000000000000000000000000000000000000000000000000000000815260040161019390610636565b60405180910390fd5b6000600160008373ffffffffffffffffffffffffffffffffffffffff1673ffffffffffffffffffffffffffffffffffffffff16815260200190815260200160002060006101000a81548160ff02191690831515021790555050565b60016020528060005260406000206000915054906101000a900460ff1681565b60006020528060005260406000206000915090505481565b600160003373ffffffffffffffffffffffffffffffffffffffff1673ffffffffffffffffffffffffffffffffffffffff16815260200190815260200160002060009054906101000a900460ff166102bb576040517f08c379a00000000000000000000000000000000000000000000000000000000081526004016102b290610636565b60405180910390fd5b60018060008373ffffffffffffffffffffffffffffffffffffffff1673ffffffffffffffffffffffffffffffffffffffff16815260200190815260200160002060006101000a81548160ff02191690831515021790555050565b600160003373ffffffffffffffffffffffffffffffffffffffff1673ffffffffffffffffffffffffffffffffffffffff16815260200190815260200160002060009054906101000a900460ff166103a1576040517f08c379a000000000000000000000000000000000000000000000000000000000815260040161039890610636565b60405180910390fd5b806000808481526020019081526020016000208190555080827fbe2082cd1fb46ab4b92ce09866b7e6619094d3269844acebec678552b0732dcd60405160405180910390a35050565b600080fd5b600073ffffffffffffffffffffffffffffffffffffffff82169050919050565b600061041a826103ef565b9050919050565b61042a8161040f565b811461043557600080fd5b50565b60008135905061044781610421565b92915050565b600060208284031215610463576104626103ea565b5b600061047184828501610438565b91505092915050565b60008115159050919050565b61048f8161047a565b82525050565b60006020820190506104aa6000830184610486565b92915050565b6000819050919050565b6104c3816104b0565b81146104ce57600080fd5b50565b6000813590506104e0816104ba565b92915050565b6000602082840312156104fc576104fb6103ea565b5b600061050a848285016104d1565b91505092915050565b6000819050919050565b61052681610513565b82525050565b6000602082019050610541600083018461051d565b92915050565b61055081610513565b811461055b57600080fd5b50565b60008135905061056d81610547565b92915050565b6000806040838503121561058a576105896103ea565b5b6000610598858286016104d1565b92505060206105a98582860161055e565b9150509250929050565b600082825260208201905092915050565b7f4f6e6c792061646d696e2063616e20706572666f726d2074686973206f70657260008201527f6174696f6e000000000000000000000000000000000000000000000000000000602082015250565b60006106206025836105b3565b915061062b826105c4565b604082019050919050565b6000602082019050818103600083015261064f81610613565b905091905056fea2646970667358221220c60902db7364e31376ce3888d3d02bfa242b0231dc401344f7ebf0185ad2e71b64736f6c63430008180033",
  "linkReferences": {},
  "deployedLinkReferences": {}
}